:100000000C942A000C9489080C94B2080C94F70AFA
:100010000C94B10A0C940D0D0C94360D0C94470001
:100020000C9447000C9447000C943B0A0C94F5097F
:100030000C9447000C9447000C9447000C94470024
:100040000C9447000C9447000C94DB080C94470078
:100050000C94470011241FBECFE5D4E0DEBFCDBF16
:1000600010E0A8E6B0E001C01D92A23AB107E1F7A6
:1000700010E0A0E6B0E0EAEFFCE102C005900D92CE
:10008000A836B107D9F70E945F0D0C947B0E0C9433
:100090000000EF92FF920F931F937B018C0120E0F1
:1000A00030E040E05FE40E94C50388238CF0C80183
:1000B000B70120E030E040E05FE40E94C1010E940F
:1000C000F5039B01AC01205030404040504806C031
:1000D000C801B7010E94F5039B01AC01B901CA0137
:1000E0001F910F91FF90EF900895A0E0B0E0EBE733
:1000F000F0E00C94440EDC012B01FA019C9192304B
:1001000008F439C1EB018881823008F433C194309E
:1001100069F4843009F02FC111969C91119789815F
:10012000981709F428C1A0E6B0E025C1843009F48D
:1001300021C18230A9F4923009F01DC19A01AD01AC
:1001400088E0EA010990AE01E90109929E0181501F
:10015000C1F7E201898111969C918923818308C1AD
:10016000923009F407C112962D903C901397EB0141
:100170008A819B811496AD90BD90CD90DC901797AD
:10018000EC80FD800E811F819101281B390BB90184
:1001900037FF04C066277727621B730B6032710537
:1001A0000CF061C0121613066CF537014801062EDB
:1001B00004C096948794779467940A94D2F721E0C8
:1001C00030E040E050E004C0220F331F441F551FB1
:1001D0006A95D2F721503040404050402E213F21B7
:1001E00040235123211531054105510521F021E01E
:1001F00030E040E050E079018A01E628F72808293C
:1002000019293CC0232BD1F1260E371E350146019A
:10021000062E04C096948794779467940A94D2F734
:1002200021E030E040E050E004C0220F331F441FC3
:10023000551F6A95D2F721503040404050402A2146
:100240003B214C215D21211531054105510521F04E
:1002500021E030E040E050E059016A01A628B728CB
:10026000C828D9280BC0821593052CF01C01AA249C
:10027000BB24650103C0EE24FF24870111969C91E5
:10028000D20111968C91981709F445C0992339F041
:10029000A80197012A193B094C095D0906C0A6016E
:1002A00095012E193F09400B510B57FD08C01182D3
:1002B0003382228224833583468357831DC081E0A5
:1002C00081833382228288279927DC01821B930B4A
:1002D000A40BB50B84839583A683B7830DC0220F2F
:1002E000331F441F551F24833583468357838281E0
:1002F000938101979383828324813581468157813D
:10030000DA01C9010197A109B1098F5F9F4FAF4F72
:10031000BF4328F30BC0918333822282EA0CFB1C7B
:100320000C1D1D1DE482F5820683178383E0808304
:10033000248135814681578157FF1AC0C901AA27F8
:1003400097FDA095BA2F81709070A070B0705695EF
:10035000479537952795822B932BA42BB52B848318
:100360009583A683B7838281938101969383828349
:10037000DF0101C0D201CD01CDB7DEB7E2E10C94BF
:10038000600EA0E2B0E0E7ECF1E00C94500E69835F
:100390007A838B839C832D833E834F835887E9E048
:1003A000EE2EF12CEC0EFD1ECE010196B7010E943F
:1003B0001E058E010F5E1F4FCE010596B8010E94EB
:1003C0001E058A8991E089278A8BC701B801AE0191
:1003D000475E5F4F0E9475000E944904A096E6E0C8
:1003E0000C946C0EA0E2B0E0E8EFF1E00C94500E3B
:1003F00069837A838B839C832D833E834F835887C5
:10040000F9E0EF2EF12CEC0EFD1ECE010196B701A6
:100410000E941E058E010F5E1F4FCE010596B8018A
:100420000E941E05C701B801AE01475E5F4F0E94E2
:1004300075000E944904A096E6E00C946C0EA0E2C0
:10044000B0E0E5E2F2E00C94440E69837A838B839A
:100450009C832D833E834F835887CE010196BE0136
:10046000675F7F4F0E941E05CE010596BE016F5E3D
:100470007F4F0E941E059985923088F089898230CD
:10048000C8F0943019F4823051F404C0843029F457
:10049000923081F480E690E0C6C0923049F420E0CA
:1004A0009A858A89981321E02A87CE010996BBC0D4
:1004B000823049F420E09A858A89981321E02A8BBA
:1004C000CE014196B0C02D843E844F8458886D88FB
:1004D0007E888F88988CEE24FF248701AA24BB2471
:1004E000650140E050E060E070E0E0E0F0E0C10174
:1004F00081709070892BE9F0E60CF71C081D191D1E
:100500009A01AB012A0D3B1D4C1D5D1D80E090E062
:10051000A0E0B0E0E614F7040805190520F481E036
:1005200090E0A0E0B0E0BA01A901480F591F6A1F8E
:100530007B1FAA0CBB1CCC1CDD1C97FE08C081E0F5
:1005400090E0A0E0B0E0A82AB92ACA2ADB2A3196B6
:10055000E032F10549F0660C771C881C991C569412
:10056000479437942794C3CFFA85EA892B893C892D
:100570008B859C85280F391F2E5F3F4F17C0CA01FE
:1005800081709070892B61F016950795F794E79428
:1005900080E090E0A0E0B0E8E82AF92A0A2B1B2BC3
:1005A00076956795579547952F5F3F4F77FDE7CF36
:1005B0000CC0440F551F661F771F17FD4160EE0CDE
:1005C000FF1C001F111F21503040403090E05907A0
:1005D00090E0690790E4790760F32B8F3C8FDB0193
:1005E000CA018F779070A070B07080349105A1051A
:1005F000B10561F447FD0AC0E114F10401051105DC
:1006000029F0405C5F4F6F4F7F4F40781A8EFE1786
:1006100011F081E08A8F4D8F5E8F6F8F78A383E01A
:10062000898FCE0149960E944904A096E2E10C947C
:10063000600EA8E1B0E0EFE1F3E00C944C0E6983AA
:100640007A838B839C832D833E834F835887B9E0C5
:10065000EB2EF12CEC0EFD1ECE010196B7010E948F
:100660001E058E010F5E1F4FCE010596B8010E9438
:100670001E052985223008F47EC03989323010F4F5
:10068000B8017CC08A859A8989278A87243011F02D
:10069000223031F4231709F06EC060E670E06EC0BE
:1006A000343039F41D861E861F86188A1C861B86E8
:1006B00004C0323021F484E08987B7015FC02B8504
:1006C0003C858B899C89281B390B3C872B87ED84C3
:1006D000FE840F851889AD88BE88CF88D88CEA142F
:1006E000FB040C051D0540F4EE0CFF1C001F111F40
:1006F000215030403C872B8720E030E040E050E044
:1007000080E090E0A0E0B0E460E070E0EA14FB0478
:100710000C051D0540F0282B392B4A2B5B2BEA18C2
:10072000FB080C091D09B695A79597958795EE0CC2
:10073000FF1C001F111F6F5F7F4F6F31710531F775
:10074000DA01C9018F779070A070B0708034910584
:10075000A105B10561F427FD0AC0E114F10401050A
:10076000110529F0205C3F4F4F4F5F4F20782D87B8
:100770003E874F87588BBE01675F7F4FCB010E943A
:1007800049046896EAE00C94680EA8E1B0E0EBEC4E
:10079000F3E00C94500E69837A838B839C832D83C2
:1007A0003E834F83588789E0E82EF12CEC0EFD1E26
:1007B000CE010196B7010E941E058E010F5E1F4FEC
:1007C000CE010596B8010E941E058985823040F051
:1007D0008989823028F0C701B8010E94960501C0BE
:1007E0008FEF6896E6E00C946C0EACE0B0E0EBEFB7
:1007F000F3E00C94540E69837A838B839C83CE013F
:100800000196BE016B5F7F4F0E941E058D81823075
:1008100061F1823050F1843021F48E81882351F1CE
:100820002EC02F81388537FD20C06E812F313105D4
:100830001CF06623F9F023C08EE190E0821B930B3D
:1008400029853A854B855C8504C056954795379533
:1008500027958A95D2F76623B1F05095409530954B
:1008600021953F4F4F4F5F4F0EC020E030E040E0FA
:1008700050E009C02FEF3FEF4FEF5FE704C020E0EB
:1008800030E040E050E8B901CA012C96E2E00C9457
:10089000700EDF92EF92FF920F931F93FC01E480A2
:1008A000F58006811781D1808081823048F480E014
:1008B00090E0A0E1B0E0E82AF92A0A2B1B2BA5C0A2
:1008C000843009F49FC0823021F4EE24FF24870194
:1008D00005C0E114F1040105110519F4E0E0F0E0B0
:1008E00096C0628173819FEF623879070CF05BC01C
:1008F00022E83FEF261B370B2A3131052CF020E090
:1009000030E040E050E02AC0B801A701022E04C048
:1009100076956795579547950A94D2F781E090E0D0
:10092000A0E0B0E004C0880F991FAA1FBB1F2A9542
:10093000D2F70197A109B1098E219F21A023B123EC
:100940000097A105B10521F081E090E0A0E0B0E0C2
:100950009A01AB01282B392B4A2B5B2BDA01C901F9
:100960008F779070A070B07080349105A105B105AB
:1009700039F427FF09C0205C3F4F4F4F5F4F04C041
:10098000215C3F4F4F4F5F4FE0E0F0E02030A0E0B0
:100990003A07A0E04A07A0E45A0710F0E1E0F0E0CF
:1009A00079018A0127C06038710564F5FB01E158BF
:1009B000FF4FD801C7018F779070A070B07080345E
:1009C0009105A105B10539F4E7FE0DC080E490E082
:1009D000A0E0B0E004C08FE390E0A0E0B0E0E80E5B
:1009E000F91E0A1F1B1F17FF05C016950795F794E0
:1009F000E794319687E016950795F794E7948A95E2
:100A0000D1F705C0EE24FF248701EFEFF0E06E2F51
:100A1000679566276795902F9F77D794DD24D794A5
:100A20008E2F8695492F462B582F5D29B701CA0175
:100A30001F910F91FF90EF90DF900895FC01DB0173
:100A4000408151812281622F6F7770E0221F22271F
:100A5000221F9381892F880F822B282F30E0991F26
:100A60009927991F11969C93119721153105A9F586
:100A7000411551056105710511F482E037C082E826
:100A80009FEF13969C938E9312979A01AB0167E0A8
:100A9000220F331F441F551F6A95D1F783E08C93B3
:100AA0000DC0220F331F441F551F12968D919C912C
:100AB0001397019713969C938E931297203080E0A2
:100AC000380780E0480780E4580758F314962D93C0
:100AD0003D934D935C93179708952F3F310579F41B
:100AE000411551056105710519F484E08C93089551
:100AF00064FF03C081E08C9312C01C9210C02F577A
:100B0000304013963C932E93129783E08C9387E0AA
:100B1000440F551F661F771F8A95D1F7706414968E
:100B20004D935D936D937C93179708951F93DC010C
:100B3000FB019C91923008F447C08081823008F418
:100B400043C0943051F411961C91843099F5818101
:100B5000682F70E0611B71093FC0843021F0923032
:100B600031F48230B9F18181882389F12DC0119649
:100B70001C9111978230F1F081811817D9F41296E7
:100B80002D913C911397828193818217930794F062
:100B900028173907BCF014968D919D910D90BC914A
:100BA000A02D2481358146815781281739074A07AE
:100BB0005B0718F4112341F00AC082179307A407BA
:100BC000B50740F4112319F061E070E005C06FEF44
:100BD0007FEF02C060E070E0CB011F9108956830A4
:100BE00008F0C2C04423D1F58130A1F0813030F04B
:100BF0008230E1F0833009F0B7C024C02AB381E02D
:100C000090E002C0880F991F6A95E2F780958223D1
:100C10008ABBA8C027B381E090E002C0880F991F6B
:100C20006A95E2F78095822387BB9CC024B381E05C
:100C300090E002C0880F991F6A95E2F780958223A1
:100C400084BB90C021B381E090E002C0880F991F5F
:100C50006A95E2F78095822381BB84C04130B1F56B
:100C6000813099F0813030F08230D1F0833009F05A
:100C70007BC021C02AB381E090E002C0880F991F99
:100C80006A95E2F7282B2ABB6DC027B381E090E07C
:100C900002C0880F991F6A95E2F7282B27BB62C014
:100CA00024B381E090E002C0880F991F6A95E2F7B3
:100CB000282B24BB57C021B381E090E002C0880FED
:100CC000991F6A95E2F7282B21BB4CC0423009F0EE
:100CD0004BC08130C1F0813030F0823021F183305F
:100CE00009F042C030C03AB381E090E002C0880F02
:100CF000991F6A95E2F7282F209523232ABB2BB34F
:100D0000822B8BBB2FC037B381E090E002C0880FED
:100D1000991F6A95E2F7282F2095232327BB28B334
:100D2000822B88BB1FC034B381E090E002C0880FE3
:100D3000991F6A95E2F7282F2095232324BB25B31A
:100D4000822B85BB0FC031B381E090E002C0880FD9
:100D5000991F6A95E2F7282F2095232321BB22B300
:100D6000822B82BB80E0089581E00895813051F0AC
:100D7000813030F0823041F0833049F081E00895D5
:100D80006ABB03C067BB01C064BB80E0089561BB60
:100D900080E00895683008F074C04423D1F58130B4
:100DA000A1F0813030F08230E1F0833009F069C089
:100DB00024C02BB381E090E002C0880F991F6A9590
:100DC000E2F7809582238BBB5AC028B381E090E084
:100DD00002C0880F991F6A95E2F78095822388BB2D
:100DE0004EC025B381E090E002C0880F991F6A953C
:100DF000E2F78095822385BB42C022B381E090E078
:100E000002C0880F991F6A95E2F78095822382BB02
:100E100036C04130B1F5813091F0813028F0823018
:100E2000C9F0833071F521C02BB381E090E002C09E
:100E3000880F991F6A95E2F7282B2BBB20C028B397
:100E400081E090E002C0880F991F6A95E2F7282B95
:100E500028BB15C025B381E090E002C0880F991F20
:100E60006A95E2F7282B25BB0AC022B381E090E007
:100E700002C0880F991F6A95E2F7282B22BB80E0F9
:100E8000089581E00895813051F0813030F0823052
:100E900041F0833049F081E008956BBB03C068BB2B
:100EA00001C065BB80E0089562BB80E00895813099
:100EB00099F0813030F08230D1F0833021F181E03F
:100EC00008952BB381E090E002C0880F991F6A95C6
:100ED000E2F728272BBB15C028B381E090E002C0C1
:100EE000880F991F6A95E2F7282728BB0AC025B307
:100EF00081E090E002C0880F991F6A95E2F72827E9
:100F000025BB80E0089522B381E090E002C0880F05
:100F1000991F6A95E2F7282722BB80E00895FA011D
:100F200041155105E1F06830D0F4813049F081304D
:100F300028F0823039F0833091F406C089B305C0BF
:100F400086B303C083B301C080B390E002C095951F
:100F500087956A95E2F78170808380E0089581E04B
:100F60000895FB016115710599F0813049F08130D8
:100F700028F0823039F0833059F406C089B305C0B7
:100F800086B303C083B301C080B3808380E008953B
:100F900081E0089585B78E7F85BF85B7826085BF64
:100FA0008BB780648BBF089585B7846085BF85B794
:100FB000886085BF8BB780688BBF089584B78F7BAF
:100FC00084BF8BB780628BBF0895823071F083300D
:100FD00018F4813029F406C0833069F0843099F028
:100FE00081E0089585B78E7F02C085B7816085BF97
:100FF00085B78D7F05C085B78E7F85BF85B7826039
:1010000085BF80E0089585B7816085BF85B7826020
:1010100085BF80E00895823071F0833018F481300C
:1010200029F406C0833069F0843099F081E0089596
:1010300085B78B7F02C085B7846085BF85B7877F02
:1010400005C085B78B7F85BF85B7886085BF80E089
:10105000089585B7846085BF85B7886085BF80E0C7
:101060000895833021F0843039F081E0089584B709
:101070008F7B84BF80E0089584B7806484BF80E064
:101080000895813049F0813020F0823051F081E0C4
:1010900008958BB7806402C08BB780688BBF80E0F7
:1010A00008958BB780628BBF80E00895813049F04E
:1010B000813020F0823051F081E008958BB78F7B32
:1010C00002C08BB78F778BBF80E008958BB78F7D81
:1010D0008BBF80E00895009711F482E0089590930B
:1010E00069008093680080E00895009711F482E021
:1010F000089590936B0080936A0080E008950097B4
:1011000011F482E0089590936D0080936C0080E06C
:1011100008951F920F920FB60F9211242F933F93B1
:101120004F935F936F937F938F939F93AF93BF93EF
:10113000EF93FF93E0916800F0916900309709F018
:101140000995FF91EF91BF91AF919F918F917F9101
:101150006F915F914F913F912F910F900FBE0F9024
:101160001F9018951F920F920FB60F9211242F9374
:101170003F934F935F936F937F938F939F93AF931F
:10118000BF93EF93FF93E0916A00F0916B0030976B
:1011900009F00995FF91EF91BF91AF919F918F91C8
:1011A0007F916F915F914F913F912F910F900FBE63
:1011B0000F901F9018951F920F920FB60F92112447
:1011C0002F933F934F935F936F937F938F939F934F
:1011D000AF93BF93EF93FF93E0916C00F0916D009C
:1011E000309709F00995FF91EF91BF91AF919F91D1
:1011F0008F917F916F915F914F913F912F910F90C0
:101200000FBE0F901F9018958FB780688FBF0895FD
:101210008FB78F778FBF089510926E0010926F0076
:1012200010927000089580916E008F5F80936E0021
:101230008B3339F410926E0080916F008F5F809332
:101240006F0080916F008B3339F410926F008091A2
:1012500070008F5F8093700080917000883131F44E
:1012600010926E0010926F001092700008950E940C
:10127000D90C08950E94CF0C089583E062E042E00B
:101280000E94EF0583E063E042E00E94EF0581E009
:1012900062E042E00E94EF0582E060E041E00E94EF
:1012A000EF0582E061E041E00E94EF0582E062E04C
:1012B00041E00E94EF0582E063E041E00E94EF051B
:1012C00080E060E041E00E94EF0580E061E041E005
:1012D0000E94EF0580E062E041E00E94EF0580E0BF
:1012E00063E041E00E94EF0580E064E041E00E949D
:1012F000EF0580E065E041E00E94EF0580E060E0FE
:1013000041E00E94CA0680E061E041E00E94CA0616
:1013100080E062E041E00E94CA0680E063E041E0D4
:101320000E94CA0680E064E041E00E94CA0680E0B4
:1013300065E041E00E94CA0682E060E041E00E9470
:10134000CA0682E061E041E00E94CA0682E062E0F3
:1013500041E00E94CA0682E063E041E00E94CA06C2
:101360000E9404090E94CA070E94D4070E94DE0757
:1013700084E063E040E00E94190B88EE93E00E9455
:10138000C60C089583B7806483BF83B7877F83BF0C
:1013900083B78F7E83BF83B7806283BF83B781604B
:1013A00083BF83B78D7F83BF83B7846083BF80E0B3
:1013B00090E0A0E8B4E480938A0090938B00A0931F
:1013C0008C00B0938D000895089520E030E84FEF31
:1013D00053E40E941F0220E030E048EC52E40E94F7
:1013E00019030E9449006CBF08951F920F920FB617
:1013F0000F9211242F933F934F935F936F937F939B
:101400008F939F93AF93BF93EF93FF938091770058
:101410009091780001969093780080937700A0E0F7
:10142000B0E0209186003091870040918800509173
:101430008900281739074A075B0761F48091820009
:1014400082BFE0917900F0917A00099510927800BE
:1014500010927700FF91EF91BF91AF919F918F9183
:101460007F916F915F914F913F912F910F900FBEA0
:101470000F901F9018951F920F920FB60F92112484
:101480002F933F934F935F936F937F938F939F938C
:10149000AF93BF93EF93FF93809175009091760087
:1014A00001969093760080937500A0E0B0E02091C3
:1014B000960030919700409198005091990028171C
:1014C00039074A075B0749F41092760010927500BD
:1014D000E0917900F0917A000995FF91EF91BF9129
:1014E000AF919F918F917F916F915F914F913F91BC
:1014F0002F910F900FBE0F901F90189585B58064A7
:1015000085BD85B5877F85BD85B58F7E85BD85B554
:10151000806285BD85B5816085BD85B58D7F85BDC2
:1015200085B5846085BD80E090E0A0E8B4E4809358
:10153000920090939300A0939400B0939500089527
:10154000089520E030E84FEF53E40E941F0220E0AE
:1015500030E048EC52E40E9419030E94490063BD48
:1015600008951F920F920FB60F9211242F933F935D
:101570004F935F936F937F938F939F93AF93BF939B
:10158000EF93FF9380917300909174000196909374
:10159000740080937300A0E0B0E020918E00309141
:1015A0008F004091900050919100281739074A0709
:1015B0005B0761F480919E0084BDE0917D00F09115
:1015C0007E0009951092740010927300FF91EF91C4
:1015D000BF91AF919F918F917F916F915F914F914B
:1015E0003F912F910F900FBE0F901F9018958091F3
:1015F0007100909172000196909372008093710037
:10160000A0E0B0E020919A0030919B0040919C00B6
:1016100050919D00281739074A075B0749F4E0916C
:101620007D00F0917E000995109272001092710079
:101630000895982F873009F48AC0883088F4833061
:1016400009F44DC0843028F48130A9F18230C8F506
:101650001DC0853009F465C0863008F068C048C0F8
:101660008B3009F48FC08C3038F4893009F481C094
:101670008A3008F084C07AC08E3009F49EC08F3062
:1016800009F49EC08C3009F0A7C085C08FB58E7F4D
:101690008FBD8FB58D7F8FBD8EB5877F8EBD8EB58B
:1016A0008F7E8EBD89B7846089BF89B7877F89BFE8
:1016B00089B78F7E31C08FB581608FBD8FB58D7F2B
:1016C00013C08FB58E7F8FBD8FB582608FBD8EB5F5
:1016D000877F8EBD8EB58F7E8EBD82E035C08FB583
:1016E00081608FBD8FB582608FBD8EB5877F37C01B
:1016F0008FB58E7F8FBD8FB58D7F8FBD8EB5886086
:101700008EBD8EB58F7E8EBD89B78B7F89BF89B721
:10171000877F89BF89B7806189BF89B78F7D89BF7E
:101720005BC08FB581608FBD8FB58D7F15C08FB5C4
:101730008E7F8FBD8FB582608FBD8EB588608EBD68
:101740008EB58F7E8EBD86E08093810045C08FB5BB
:1017500081608FBD8FB582608FBD8EB588608EBD74
:101760008EB58F7E8EBD9093810036C08FB58E7FF3
:1017700002C08FB581608FBD8FB58D7F08C08FB5DA
:101780008E7F02C08FB581608FBD8FB582608FBDA7
:101790008EB5877F1DC08FB58E7F8FBD8FB5826060
:1017A0008FBD8EB588608EBD8EB58F7E8EBD89B79C
:1017B0008B7F89BF89B78860ACCF8FB58E7F02C021
:1017C0008FB581608FBD8FB582608FBD8EB588600B
:1017D0008EBD8EB580618EBD613051F0613028F0D4
:1017E000623061F0633099F40CC08FB58F7B02C01A
:1017F0008FB580648FBD8FB58F7708C08FB58F7B15
:1018000002C08FB580648FBD8FB580688FBD4130B9
:1018100051F0413028F0423061F0433099F40CC06F
:101820008FB58F7E02C08FB580618FBD8FB58F7DE4
:1018300008C08FB58F7E02C08FB580618FBD8FB518
:1018400080628FBD8EB581608EBD8EB58D7F8EBD61
:101850008EB584608EBD0895982F8091810083306D
:1018600029F1843030F4813059F0823009F040C0E1
:101870000CC0863011F1873049F18530C9F51BC0A5
:10188000292F30E08EEF91E004C0292F30E08EEF59
:1018900093E0AC01249FC001259F900D349F900DD3
:1018A000112464E670E00E941D0E0DC0292F30E067
:1018B0008EEF97E0EECF80E002C080E0990F64E603
:1018C00070E00E94310E7BBD6ABD0895292F30E083
:1018D0008FEF93E0AC01249FC001259F900D349FB2
:1018E000900D112464E670E00E941D0E7BBD6ABD60
:1018F0000895982F80918100833029F1843030F44D
:10190000813059F0823009F040C00CC0863011F1AE
:10191000873049F18530C9F51BC0292F30E08EEFA3
:1019200091E004C0292F30E08EEF93E0AC01249FBA
:10193000C001259F900D349F900D112464E670E046
:101940000E941D0E0DC0292F30E08EEF97E0EECFE4
:1019500080E002C080E0990F64E670E00E94310EE2
:1019600079BD68BD0895292F30E08FEF93E0AC0179
:10197000249FC001259F900D349F900D112464E693
:1019800070E00E941D0E79BD68BD08959BBD8ABDA3
:10199000089599BD88BD089597BD86BD08958EB5FB
:1019A0008B7F8EBD8EB58D7F8EBD8EB58E7F8EBDAD
:1019B00008958EB584608EBD8EB581608EBD08950C
:1019C00090937C0080937B0008958EB580648EBDDB
:1019D00089B7806289BF8EB58E7F8EBD8EB58260DD
:1019E0008EBD8EB58B7F8EBD0895813021F48EB56E
:1019F00080648EBD0895882319F48EB58F7B8EBDCB
:101A0000089526B537B5C901089590938000809355
:101A10007F0008951DBC1CBC08951F920F920FB645
:101A20000F9211242F933F934F935F936F937F9364
:101A30008F939F93AF93BF93EF93FF93E0917F00BA
:101A4000F0918000309709F00995FF91EF91BF91D7
:101A5000AF919F918F917F916F915F914F913F9146
:101A60002F910F900FBE0F901F9018951F920F92FD
:101A70000FB60F9211242F933F934F935F936F9361
:101A80007F938F939F93AF93BF93EF93FF93E091D7
:101A90007B00F0917C00309709F00995FF91EF9160
:101AA000BF91AF919F918F917F916F915F914F9176
:101AB0003F912F910F900FBE0F901F901895CF93CD
:101AC000DF930E943D098CE099E00E946B088AE355
:101AD00099E00E94750887E399E00E947F0883E1FE
:101AE00099E00E94E00CCAEFD0E080E060E00E9444
:101AF000430780E060E041E00E94CA0682E060E0C7
:101B00000E94430780916E006AE00E94110E82E0FD
:101B1000692F0E944307CE010197F1F780E060E052
:101B20000E94430780E061E041E00E94CA0682E033
:101B300060E00E94430780916E006AE00E94110EEF
:101B4000682F6F7082E00E944307CE010197F1F782
:101B500080E060E00E94430780E062E041E00E9494
:101B6000CA0682E060E00E94430780916F006AE04D
:101B70000E94110E9F7082E0692F0E944307CE01E0
:101B80000197F1F780E060E00E94430780E063E0A6
:101B900041E00E94CA0682E060E00E944307809113
:101BA0006F006AE00E94110E682F6F7082E00E9441
:101BB0004307CE010197F1F780E060E00E94430700
:101BC00080E064E041E00E94CA0682E060E00E949A
:101BD0004307809170006AE00E94110E9F7082E0BE
:101BE000692F0E944307CE010197F1F780E060E082
:101BF0000E94430780E065E041E00E94CA0682E05F
:101C000060E00E944307809170006AE00E94110E1C
:101C1000682F6F7082E00E944307CE010197F1F7B1
:101C200064CF991B79E004C0991F961708F0961BA2
:101C3000881F7A95C9F780950895AA1BBB1B51E1AF
:101C400007C0AA1FBB1FA617B70710F0A61BB70B2C
:101C5000881F991F5A95A9F780959095BC01CD01D1
:101C6000089597FB092E07260AD077FD04D0E5DFFB
:101C700006D000201AF4709561957F4F0895F6F70D
:101C8000909581959F4F08952F923F924F925F922A
:101C90006F927F928F929F92AF92BF92CF92DF927C
:101CA000EF92FF920F931F93CF93DF93CDB7DEB7E1
:101CB000CA1BDB0B0FB6F894DEBF0FBECDBF099475
:101CC0002A88398848885F846E847D848C849B84CC
:101CD000AA84B984C884DF80EE80FD800C811B81DA
:101CE000AA81B981CE0FD11D0FB6F894DEBF0FBE09
:0A1CF000CDBFED010895F894FFCF79
:081CFA000000000000000000E2
:00000001FF
